:020000040000FA
:020000000528D1
:040002000034003492
:080008006628831203138B012B
:1000100007309F0083160030850086008501860129
:100020008E158312873062003D3081001430A900A4
:1000300020308B001C201A2828083F208500280823
:10004000281C2C28A818282828192A2824083528EC
:100050002308352822083528A818322828193428DA
:10006000240E3528230E3528220E482086005B20DA
:10007000A80A06302802031D1C28A8010800073919
:100080008207013402340434083410344034080048
:100090000F39820703349F3425340D3499344934A1
:1000A00041341B34013419341134C134E5348534FE
:1000B0006134713408003230AA00C830AB0000004F
:1000C0000000AB0B5F28AA0B5D280800A000030E00
:1000D000A100A903031D6F2878201430A9003D302A
:1000E000810020308B00210E8300A00E200E09001D
:1000F000A20ABC002202031D0800A201A30A3C3090
:100100002302031D0800A301240A1830A402031DC2
:0A0110000800A401A301A2010800E9
:02400E00503F21
:00000001FF
