:020000040000FA
:020000000528D1
:040002000034003492
:08000800692883120313A030E4
:100010008B0007309F008316003085008600850125
:1000200086018E15831287306200A801A201A30108
:10003000A4013D3081001530A900A0308B002120A3
:100040001F282808422085002808073982073328FE
:100050002D2835282F283728312824083828230828
:10006000382822083828240E3828230E3828220E53
:100070004B2086005E20A80A06302802031D212896
:10008000A801080007398207FE34FD34FB34F73439
:10009000EF34BF3408000F398207C034F934A43478
:1000A000B034993492348234F834803490348834C3
:1000B0008334A734A13486348E3408000130AA007A
:1000C000C830AB0000000000AB0B6228AA0B602810
:1000D0000800A000030EA100A903031D72288120BF
:1000E0001530A90001302902031D7828E030792855
:1000F0003D308100A0308B00210E8300A00E200E29
:100100000900A20A3C302202031D0800A201A30A32
:100110003C302302031D0800A301A40A1830240266
:0C012000031D0800A401A301A2010800B7
:02400E00503F21
:00000001FF
